{
  "_format": "hh-sol-artifact-1",
  "contractName": "TopCollections",
  "sourceName": "contracts/collection.sol",
  "abi": [
    {
      "inputs": [
        {
          "internalType": "uint256",
          "name": "_TOKEN_PRICE",
          "type": "uint256"
        },
        {
          "internalType": "uint8",
          "name": "_MAX_USER_LIMIT",
          "type": "uint8"
        },
        {
          "internalType": "uint256",
          "name": "_MAX_SUPPLY",
          "type": "uint256"
        }
      ],
      "stateMutability": "nonpayable",
      "type": "constructor"
    },
    {
      "inputs": [],
      "name": "ApprovalCallerNotOwnerNorApproved",
      "type": "error"
    },
    {
      "inputs": [],
      "name": "ApprovalQueryForNonexistentToken",
      "type": "error"
    },
    {
      "inputs": [],
      "name": "ApproveToCaller",
      "type": "error"
    },
    {
      "inputs": [],
      "name": "BalanceQueryForZeroAddress",
      "type": "error"
    },
    {
      "inputs": [],
      "name": "MintERC2309QuantityExceedsLimit",
      "type": "error"
    },
    {
      "inputs": [],
      "name": "MintToZeroAddress",
      "type": "error"
    },
    {
      "inputs": [],
      "name": "MintZeroQuantity",
      "type": "error"
    },
    {
      "inputs": [],
      "name": "OwnerQueryForNonexistentToken",
      "type": "error"
    },
    {
      "inputs": [],
      "name": "OwnershipNotInitializedForExtraData",
      "type": "error"
    },
    {
      "inputs": [],
      "name": "TransferCallerNotOwnerNorApproved",
      "type": "error"
    },
    {
      "inputs": [],
      "name": "TransferFromIncorrectOwner",
      "type": "error"
    },
    {
      "inputs": [],
      "name": "TransferToNonERC721ReceiverImplementer",
      "type": "error"
    },
    {
      "inputs": [],
      "name": "TransferToZeroAddress",
      "type": "error"
    },
    {
      "inputs": [],
      "name": "URIQueryForNonexistentToken",
      "type": "error"
    },
    {
      "anonymous": false,
      "inputs": [
        {
          "indexed": true,
          "internalType": "address",
          "name": "owner",
          "type": "address"
        },
        {
          "indexed": true,
          "internalType": "address",
          "name": "approved",
          "type": "address"
        },
        {
          "indexed": true,
          "internalType": "uint256",
          "name": "tokenId",
          "type": "uint256"
        }
      ],
      "name": "Approval",
      "type": "event"
    },
    {
      "anonymous": false,
      "inputs": [
        {
          "indexed": true,
          "internalType": "address",
          "name": "owner",
          "type": "address"
        },
        {
          "indexed": true,
          "internalType": "address",
          "name": "operator",
          "type": "address"
        },
        {
          "indexed": false,
          "internalType": "bool",
          "name": "approved",
          "type": "bool"
        }
      ],
      "name": "ApprovalForAll",
      "type": "event"
    },
    {
      "anonymous": false,
      "inputs": [
        {
          "indexed": true,
          "internalType": "uint256",
          "name": "fromTokenId",
          "type": "uint256"
        },
        {
          "indexed": false,
          "internalType": "uint256",
          "name": "toTokenId",
          "type": "uint256"
        },
        {
          "indexed": true,
          "internalType": "address",
          "name": "from",
          "type": "address"
        },
        {
          "indexed": true,
          "internalType": "address",
          "name": "to",
          "type": "address"
        }
      ],
      "name": "ConsecutiveTransfer",
      "type": "event"
    },
    {
      "anonymous": false,
      "inputs": [
        {
          "indexed": true,
          "internalType": "address",
          "name": "previousOwner",
          "type": "address"
        },
        {
          "indexed": true,
          "internalType": "address",
          "name": "newOwner",
          "type": "address"
        }
      ],
      "name": "OwnershipTransferred",
      "type": "event"
    },
    {
      "anonymous": false,
      "inputs": [
        {
          "indexed": true,
          "internalType": "address",
          "name": "from",
          "type": "address"
        },
        {
          "indexed": true,
          "internalType": "address",
          "name": "to",
          "type": "address"
        },
        {
          "indexed": true,
          "internalType": "uint256",
          "name": "tokenId",
          "type": "uint256"
        }
      ],
      "name": "Transfer",
      "type": "event"
    },
    {
      "inputs": [],
      "name": "MAX_SUPPLY",
      "outputs": [
        {
          "internalType": "uint256",
          "name": "",
          "type": "uint256"
        }
      ],
      "stateMutability": "view",
      "type": "function"
    },
    {
      "inputs": [],
      "name": "MAX_USER_LIMIT",
      "outputs": [
        {
          "internalType": "uint8",
          "name": "",
          "type": "uint8"
        }
      ],
      "stateMutability": "view",
      "type": "function"
    },
    {
      "inputs": [],
      "name": "TOKEN_PRICE",
      "outputs": [
        {
          "internalType": "uint256",
          "name": "",
          "type": "uint256"
        }
      ],
      "stateMutability": "view",
      "type": "function"
    },
    {
      "inputs": [
        {
          "internalType": "address",
          "name": "to",
          "type": "address"
        },
        {
          "internalType": "uint256",
          "name": "tokenId",
          "type": "uint256"
        }
      ],
      "name": "approve",
      "outputs": [],
      "stateMutability": "nonpayable",
      "type": "function"
    },
    {
      "inputs": [
        {
          "internalType": "address",
          "name": "owner",
          "type": "address"
        }
      ],
      "name": "balanceOf",
      "outputs": [
        {
          "internalType": "uint256",
          "name": "",
          "type": "uint256"
        }
      ],
      "stateMutability": "view",
      "type": "function"
    },
    {
      "inputs": [
        {
          "internalType": "uint256",
          "name": "tokenId",
          "type": "uint256"
        }
      ],
      "name": "getApproved",
      "outputs": [
        {
          "internalType": "address",
          "name": "",
          "type": "address"
        }
      ],
      "stateMutability": "view",
      "type": "function"
    },
    {
      "inputs": [
        {
          "internalType": "address",
          "name": "owner",
          "type": "address"
        },
        {
          "internalType": "address",
          "name": "operator",
          "type": "address"
        }
      ],
      "name": "isApprovedForAll",
      "outputs": [
        {
          "internalType": "bool",
          "name": "",
          "type": "bool"
        }
      ],
      "stateMutability": "view",
      "type": "function"
    },
    {
      "inputs": [],
      "name": "merkleRoot",
      "outputs": [
        {
          "internalType": "bytes32",
          "name": "",
          "type": "bytes32"
        }
      ],
      "stateMutability": "view",
      "type": "function"
    },
    {
      "inputs": [
        {
          "internalType": "bytes32[]",
          "name": "proof",
          "type": "bytes32[]"
        }
      ],
      "name": "mintOne",
      "outputs": [],
      "stateMutability": "payable",
      "type": "function"
    },
    {
      "inputs": [],
      "name": "name",
      "outputs": [
        {
          "internalType": "string",
          "name": "",
          "type": "string"
        }
      ],
      "stateMutability": "view",
      "type": "function"
    },
    {
      "inputs": [
        {
          "internalType": "address",
          "name": "user",
          "type": "address"
        }
      ],
      "name": "numberMinted",
      "outputs": [
        {
          "internalType": "uint256",
          "name": "",
          "type": "uint256"
        }
      ],
      "stateMutability": "view",
      "type": "function"
    },
    {
      "inputs": [],
      "name": "owner",
      "outputs": [
        {
          "internalType": "address",
          "name": "",
          "type": "address"
        }
      ],
      "stateMutability": "view",
      "type": "function"
    },
    {
      "inputs": [
        {
          "internalType": "uint256",
          "name": "tokenId",
          "type": "uint256"
        }
      ],
      "name": "ownerOf",
      "outputs": [
        {
          "internalType": "address",
          "name": "",
          "type": "address"
        }
      ],
      "stateMutability": "view",
      "type": "function"
    },
    {
      "inputs": [],
      "name": "renounceOwnership",
      "outputs": [],
      "stateMutability": "nonpayable",
      "type": "function"
    },
    {
      "inputs": [
        {
          "internalType": "address",
          "name": "from",
          "type": "address"
        },
        {
          "internalType": "address",
          "name": "to",
          "type": "address"
        },
        {
          "internalType": "uint256",
          "name": "tokenId",
          "type": "uint256"
        }
      ],
      "name": "safeTransferFrom",
      "outputs": [],
      "stateMutability": "nonpayable",
      "type": "function"
    },
    {
      "inputs": [
        {
          "internalType": "address",
          "name": "from",
          "type": "address"
        },
        {
          "internalType": "address",
          "name": "to",
          "type": "address"
        },
        {
          "internalType": "uint256",
          "name": "tokenId",
          "type": "uint256"
        },
        {
          "internalType": "bytes",
          "name": "_data",
          "type": "bytes"
        }
      ],
      "name": "safeTransferFrom",
      "outputs": [],
      "stateMutability": "nonpayable",
      "type": "function"
    },
    {
      "inputs": [
        {
          "internalType": "address",
          "name": "operator",
          "type": "address"
        },
        {
          "internalType": "bool",
          "name": "approved",
          "type": "bool"
        }
      ],
      "name": "setApprovalForAll",
      "outputs": [],
      "stateMutability": "nonpayable",
      "type": "function"
    },
    {
      "inputs": [
        {
          "internalType": "string",
          "name": "newBaseURI",
          "type": "string"
        }
      ],
      "name": "setBaseURI",
      "outputs": [],
      "stateMutability": "payable",
      "type": "function"
    },
    {
      "inputs": [
        {
          "internalType": "bytes32",
          "name": "root",
          "type": "bytes32"
        }
      ],
      "name": "setMerkleRoot",
      "outputs": [],
      "stateMutability": "payable",
      "type": "function"
    },
    {
      "inputs": [
        {
          "internalType": "bytes4",
          "name": "interfaceId",
          "type": "bytes4"
        }
      ],
      "name": "supportsInterface",
      "outputs": [
        {
          "internalType": "bool",
          "name": "",
          "type": "bool"
        }
      ],
      "stateMutability": "view",
      "type": "function"
    },
    {
      "inputs": [],
      "name": "symbol",
      "outputs": [
        {
          "internalType": "string",
          "name": "",
          "type": "string"
        }
      ],
      "stateMutability": "view",
      "type": "function"
    },
    {
      "inputs": [
        {
          "internalType": "uint256",
          "name": "tokenId",
          "type": "uint256"
        }
      ],
      "name": "tokenURI",
      "outputs": [
        {
          "internalType": "string",
          "name": "",
          "type": "string"
        }
      ],
      "stateMutability": "view",
      "type": "function"
    },
    {
      "inputs": [],
      "name": "totalMinted",
      "outputs": [
        {
          "internalType": "uint256",
          "name": "",
          "type": "uint256"
        }
      ],
      "stateMutability": "view",
      "type": "function"
    },
    {
      "inputs": [],
      "name": "totalSupply",
      "outputs": [
        {
          "internalType": "uint256",
          "name": "",
          "type": "uint256"
        }
      ],
      "stateMutability": "view",
      "type": "function"
    },
    {
      "inputs": [
        {
          "internalType": "address",
          "name": "from",
          "type": "address"
        },
        {
          "internalType": "address",
          "name": "to",
          "type": "address"
        },
        {
          "internalType": "uint256",
          "name": "tokenId",
          "type": "uint256"
        }
      ],
      "name": "transferFrom",
      "outputs": [],
      "stateMutability": "nonpayable",
      "type": "function"
    },
    {
      "inputs": [
        {
          "internalType": "address",
          "name": "newOwner",
          "type": "address"
        }
      ],
      "name": "transferOwnership",
      "outputs": [],
      "stateMutability": "nonpayable",
      "type": "function"
    },
    {
      "inputs": [],
      "name": "withdrawl",
      "outputs": [],
      "stateMutability": "payable",
      "type": "function"
    }
  ],
  "bytecode": "0x60806040523480156200001157600080fd5b5060405162002fb938038062002fb9833981810160405281019062000037919062000340565b6040518060400160405280600e81526020017f546f70436f6c6c656374696f6e730000000000000000000000000000000000008152506040518060400160405280600381526020017f544f5000000000000000000000000000000000000000000000000000000000008152508160029080519060200190620000bb92919062000212565b508060039080519060200190620000d492919062000212565b50620000e56200013f60201b60201c565b60008190555050506200010d620001016200014460201b60201c565b6200014c60201b60201c565b8260098190555081600860146101000a81548160ff021916908360ff16021790555080600a8190555050505062000401565b600090565b600033905090565b6000600860009054906101000a900473ffffffffffffffffffffffffffffffffffffffff16905081600860006101000a81548173ffffffffffffffffffffffffffffffffffffffff021916908373ffffffffffffffffffffffffffffffffffffffff1602179055508173ffffffffffffffffffffffffffffffffffffffff168173ffffffffffffffffffffffffffffffffffffffff167f8be0079c531659141344cd1fd0a4f28419497f9722a3daafe3b4186f6b6457e060405160405180910390a35050565b8280546200022090620003cb565b90600052602060002090601f01602090048101928262000244576000855562000290565b82601f106200025f57805160ff191683800117855562000290565b8280016001018555821562000290579182015b828111156200028f57825182559160200191906001019062000272565b5b5090506200029f9190620002a3565b5090565b5b80821115620002be576000816000905550600101620002a4565b5090565b600080fd5b6000819050919050565b620002dc81620002c7565b8114620002e857600080fd5b50565b600081519050620002fc81620002d1565b92915050565b600060ff82169050919050565b6200031a8162000302565b81146200032657600080fd5b50565b6000815190506200033a816200030f565b92915050565b6000806000606084860312156200035c576200035b620002c2565b5b60006200036c86828701620002eb565b93505060206200037f8682870162000329565b92505060406200039286828701620002eb565b9150509250925092565b7f4e487b7100000000000000000000000000000000000000000000000000000000600052602260045260246000fd5b60006002820490506001821680620003e457607f821691505b60208210811415620003fb57620003fa6200039c565b5b50919050565b612ba880620004116000396000f3fe60806040526004361061019c5760003560e01c8063715018a6116100ec578063af24c46f1161008a578063d2d8cb6711610064578063d2d8cb671461056c578063dc33e68114610597578063e985e9c5146105d4578063f2fde38b146106115761019c565b8063af24c46f146104db578063b88d4fde14610506578063c87b56dd1461052f5761019c565b80638da5cb5b116100c65780638da5cb5b1461043157806395d89b411461045c578063a22cb46514610487578063a2309ff8146104b05761019c565b8063715018a6146103e25780637cb64759146103f957806380dfc2af146104155761019c565b80632eb4a7ab1161015957806342842e0e1161013357806342842e0e1461032357806355f804b31461034c5780636352211e1461036857806370a08231146103a55761019c565b80632eb4a7ab146102c357806332cb6b0c146102ee5780633aedfb8b146103195761019c565b806301ffc9a7146101a157806306fdde03146101de578063081812fc14610209578063095ea7b31461024657806318160ddd1461026f57806323b872dd1461029a575b600080fd5b3480156101ad57600080fd5b506101c860048036038101906101c39190611e4c565b61063a565b6040516101d59190611e94565b60405180910390f35b3480156101ea57600080fd5b506101f36106cc565b6040516102009190611f48565b60405180910390f35b34801561021557600080fd5b50610230600480360381019061022b9190611fa0565b61075e565b60405161023d919061200e565b60405180910390f35b34801561025257600080fd5b5061026d60048036038101906102689190612055565b6107dd565b005b34801561027b57600080fd5b50610284610921565b60405161029191906120a4565b60405180910390f35b3480156102a657600080fd5b506102c160048036038101906102bc91906120bf565b610938565b005b3480156102cf57600080fd5b506102d8610c5d565b6040516102e5919061212b565b60405180910390f35b3480156102fa57600080fd5b50610303610c63565b60405161031091906120a4565b60405180910390f35b610321610c69565b005b34801561032f57600080fd5b5061034a600480360381019061034591906120bf565b610cba565b005b610366600480360381019061036191906121ab565b610cda565b005b34801561037457600080fd5b5061038f600480360381019061038a9190611fa0565b610cf8565b60405161039c919061200e565b60405180910390f35b3480156103b157600080fd5b506103cc60048036038101906103c791906121f8565b610d0a565b6040516103d991906120a4565b60405180910390f35b3480156103ee57600080fd5b506103f7610dc3565b005b610413600480360381019061040e9190612251565b610dd7565b005b61042f600480360381019061042a91906122d4565b610de1565b005b34801561043d57600080fd5b5061044661101a565b604051610453919061200e565b60405180910390f35b34801561046857600080fd5b50610471611044565b60405161047e9190611f48565b60405180910390f35b34801561049357600080fd5b506104ae60048036038101906104a9919061234d565b6110d6565b005b3480156104bc57600080fd5b506104c561124e565b6040516104d291906120a4565b60405180910390f35b3480156104e757600080fd5b506104f061125d565b6040516104fd91906123a9565b60405180910390f35b34801561051257600080fd5b5061052d600480360381019061052891906124f4565b611270565b005b34801561053b57600080fd5b5061055660048036038101906105519190611fa0565b6112e3565b6040516105639190611f48565b60405180910390f35b34801561057857600080fd5b50610581611382565b60405161058e91906120a4565b60405180910390f35b3480156105a357600080fd5b506105be60048036038101906105b991906121f8565b611388565b6040516105cb91906120a4565b60405180910390f35b3480156105e057600080fd5b506105fb60048036038101906105f69190612577565b61139a565b6040516106089190611e94565b60405180910390f35b34801561061d57600080fd5b50610638600480360381019061063391906121f8565b61142e565b005b60006301ffc9a760e01b827bffffffffffffffffffffffffffffffffffffffffffffffffffffffff1916148061069557506380ac58cd60e01b827bffffffffffffffffffffffffffffffffffffffffffffffffffffffff1916145b806106c55750635b5e139f60e01b827bffffffffffffffffffffffffffffffffffffffffffffffffffffffff1916145b9050919050565b6060600280546106db906125e6565b80601f0160208091040260200160405190810160405280929190818152602001828054610707906125e6565b80156107545780601f1061072957610100808354040283529160200191610754565b820191906000526020600020905b81548152906001019060200180831161073757829003601f168201915b5050505050905090565b6000610769826114b2565b61079f576040517fcf4700e400000000000000000000000000000000000000000000000000000000815260040160405180910390fd5b6006600083815260200190815260200160002060000160009054906101000a900473ffffffffffffffffffffffffffffffffffffffff169050919050565b60006107e882610cf8565b90508073ffffffffffffffffffffffffffffffffffffffff16610809611511565b73ffffffffffffffffffffffffffffffffffffffff161461086c5761083581610830611511565b61139a565b61086b576040517fcfb3b94200000000000000000000000000000000000000000000000000000000815260040160405180910390fd5b5b826006600084815260200190815260200160002060000160006101000a81548173ffffffffffffffffffffffffffffffffffffffff021916908373ffffffffffffffffffffffffffffffffffffffff160217905550818373ffffffffffffffffffffffffffffffffffffffff168273ffffffffffffffffffffffffffffffffffffffff167f8c5be1e5ebec7d5bd14f71427d1e84f3dd0314c0f7b2291e5b200ac8c7c3b92560405160405180910390a4505050565b600061092b611519565b6001546000540303905090565b60006109438261151e565b90508373ffffffffffffffffffffffffffffffffffffffff168173ffffffffffffffffffffffffffffffffffffffff16146109aa576040517fa114810000000000000000000000000000000000000000000000000000000000815260040160405180910390fd5b6000806109b6846115ec565b915091506109cc81876109c7611511565b611613565b610a18576109e1866109dc611511565b61139a565b610a17576040517f59c896be00000000000000000000000000000000000000000000000000000000815260040160405180910390fd5b5b600073ffffffffffffffffffffffffffffffffffffffff168573ffffffffffffffffffffffffffffffffffffffff161415610a7f576040517fea553b3400000000000000000000000000000000000000000000000000000000815260040160405180910390fd5b610a8c8686866001611657565b8015610a9757600082555b600560008773ffffffffffffffffffffffffffffffffffffffff1673ffffffffffffffffffffffffffffffffffffffff168152602001908152602001600020600081546001900391905081905550600560008673ffffffffffffffffffffffffffffffffffffffff1673ffffffffffffffffffffffffffffffffffffffff1681526020019081526020016000206000815460010191905081905550610b6585610b4188888761165d565b7c020000000000000000000000000000000000000000000000000000000017611685565b600460008681526020019081526020016000208190555060007c020000000000000000000000000000000000000000000000000000000084161415610bed576000600185019050600060046000838152602001908152602001600020541415610beb576000548114610bea578360046000838152602001908152602001600020819055505b5b505b838573ffffffffffffffffffffffffffffffffffffffff168773ffffffffffffffffffffffffffffffffffffffff167fddf252ad1be2c89b69c2b068fc378daa952ba7f163c4a11628f55a4df523b3ef60405160405180910390a4610c5586868660016116b0565b505050505050565b600b5481565b600a5481565b610c716116b6565b3373ffffffffffffffffffffffffffffffffffffffff166108fc479081150290604051600060405180830381858888f19350505050158015610cb7573d6000803e3d6000fd5b50565b610cd583838360405180602001604052806000815250611270565b505050565b610ce26116b6565b8181600c9190610cf3929190611d3d565b505050565b6000610d038261151e565b9050919050565b60008073ffffffffffffffffffffffffffffffffffffffff168273ffffffffffffffffffffffffffffffffffffffff161415610d72576040517f8f4eb60400000000000000000000000000000000000000000000000000000000815260040160405180910390fd5b67ffffffffffffffff600560008473ffffffffffffffffffffffffffffffffffffffff1673ffffffffffffffffffffffffffffffffffffffff16815260200190815260200160002054169050919050565b610dcb6116b6565b610dd56000611734565b565b80600b8190555050565b3373ffffffffffffffffffffffffffffffffffffffff163273ffffffffffffffffffffffffffffffffffffffff1614610e4f576040517f08c379a0000000000000000000000000000000000000000000000000000000008152600401610e4690612664565b60405180910390fd5b8181600033604051602001610e64919061200e565b6040516020818303038152906040528051906020012090506000610ecc848480806020026020016040519081016040528093929190818152602001838360200280828437600081840152601f19601f82011690508083019250505050505050600b54846117fa565b905080610f0e576040517f08c379a0000000000000000000000000000000000000000000000000000000008152600401610f05906126d0565b60405180910390fd5b600860149054906101000a900460ff1660ff16610f2a33611811565b10610f6a576040517f08c379a0000000000000000000000000000000000000000000000000000000008152600401610f619061273c565b60405180910390fd5b600954341015610faf576040517f08c379a0000000000000000000000000000000000000000000000000000000008152600401610fa6906127a8565b60405180910390fd5b600a546001610fbc611868565b610fc691906127f7565b1115611007576040517f08c379a0000000000000000000000000000000000000000000000000000000008152600401610ffe90612899565b60405180910390fd5b61101233600161187b565b505050505050565b6000600860009054906101000a900473ffffffffffffffffffffffffffffffffffffffff16905090565b606060038054611053906125e6565b80601f016020809104026020016040519081016040528092919081815260200182805461107f906125e6565b80156110cc5780601f106110a1576101008083540402835291602001916110cc565b820191906000526020600020905b8154815290600101906020018083116110af57829003601f168201915b5050505050905090565b6110de611511565b73ffffffffffffffffffffffffffffffffffffffff168273ffffffffffffffffffffffffffffffffffffffff161415611143576040517fb06307db00000000000000000000000000000000000000000000000000000000815260040160405180910390fd5b8060076000611150611511565b73ffffffffffffffffffffffffffffffffffffffff1673ffffffffffffffffffffffffffffffffffffffff16815260200190815260200160002060008473ffffffffffffffffffffffffffffffffffffffff1673ffffffffffffffffffffffffffffffffffffffff16815260200190815260200160002060006101000a81548160ff0219169083151502179055508173ffffffffffffffffffffffffffffffffffffffff166111fd611511565b73ffffffffffffffffffffffffffffffffffffffff167f17307eab39ab6107e8899845ad3d59bd9653f200f220920489ca2b5937696c31836040516112429190611e94565b60405180910390a35050565b6000611258611868565b905090565b600860149054906101000a900460ff1681565b61127b848484610938565b60008373ffffffffffffffffffffffffffffffffffffffff163b146112dd576112a684848484611a38565b6112dc576040517fd1a57ed600000000000000000000000000000000000000000000000000000000815260040160405180910390fd5b5b50505050565b60606112ee826114b2565b611324576040517fa14c4b5000000000000000000000000000000000000000000000000000000000815260040160405180910390fd5b600061132e611b98565b905060008151141561134f576040518060200160405280600081525061137a565b8061135984611c2a565b60405160200161136a9291906128f5565b6040516020818303038152906040525b915050919050565b60095481565b600061139382611811565b9050919050565b6000600760008473ffffffffffffffffffffffffffffffffffffffff1673ffffffffffffffffffffffffffffffffffffffff16815260200190815260200160002060008373ffffffffffffffffffffffffffffffffffffffff1673ffffffffffffffffffffffffffffffffffffffff16815260200190815260200160002060009054906101000a900460ff16905092915050565b6114366116b6565b600073ffffffffffffffffffffffffffffffffffffffff168173ffffffffffffffffffffffffffffffffffffffff1614156114a6576040517f08c379a000000000000000000000000000000000000000000000000000000000815260040161149d9061298b565b60405180910390fd5b6114af81611734565b50565b6000816114bd611519565b111580156114cc575060005482105b801561150a575060007c0100000000000000000000000000000000000000000000000000000000600460008581526020019081526020016000205416145b9050919050565b600033905090565b600090565b6000808290508061152d611519565b116115b5576000548110156115b45760006004600083815260200190815260200160002054905060007c0100000000000000000000000000000000000000000000000000000000821614156115b2575b60008114156115a857600460008360019003935083815260200190815260200160002054905061157d565b80925050506115e7565b505b5b6040517fdf2d9b4200000000000000000000000000000000000000000000000000000000815260040160405180910390fd5b919050565b60008060006006600085815260200190815260200160002090508092508254915050915091565b600073ffffffffffffffffffffffffffffffffffffffff8316925073ffffffffffffffffffffffffffffffffffffffff821691508382148383141790509392505050565b50505050565b60008060e883901c905060e8611674868684611c84565b62ffffff16901b9150509392505050565b600073ffffffffffffffffffffffffffffffffffffffff83169250814260a01b178317905092915050565b50505050565b6116be611c8d565b73ffffffffffffffffffffffffffffffffffffffff166116dc61101a565b73ffffffffffffffffffffffffffffffffffffffff1614611732576040517f08c379a0000000000000000000000000000000000000000000000000000000008152600401611729906129f7565b60405180910390fd5b565b6000600860009054906101000a900473ffffffffffffffffffffffffffffffffffffffff16905081600860006101000a81548173ffffffffffffffffffffffffffffffffffffffff021916908373ffffffffffffffffffffffffffffffffffffffff1602179055508173ffffffffffffffffffffffffffffffffffffffff168173ffffffffffffffffffffffffffffffffffffffff167f8be0079c531659141344cd1fd0a4f28419497f9722a3daafe3b4186f6b6457e060405160405180910390a35050565b6000826118078584611c95565b1490509392505050565b600067ffffffffffffffff6040600560008573ffffffffffffffffffffffffffffffffffffffff1673ffffffffffffffffffffffffffffffffffffffff16815260200190815260200160002054901c169050919050565b6000611872611519565b60005403905090565b60008054905060008214156118bc576040517fb562e8dd00000000000000000000000000000000000000000000000000000000815260040160405180910390fd5b6118c96000848385611657565b600160406001901b178202600560008573ffffffffffffffffffffffffffffffffffffffff1673ffffffffffffffffffffffffffffffffffffffff1681526020019081526020016000206000828254019250508190555061194083611931600086600061165d565b61193a85611ceb565b17611685565b6004600083815260200190815260200160002081905550600080838301905073ffffffffffffffffffffffffffffffffffffffff85169150828260007fddf252ad1be2c89b69c2b068fc378daa952ba7f163c4a11628f55a4df523b3ef600080a4600183015b8181146119e157808360007fddf252ad1be2c89b69c2b068fc378daa952ba7f163c4a11628f55a4df523b3ef600080a46001810190506119a6565b506000821415611a1d576040517f2e07630000000000000000000000000000000000000000000000000000000000815260040160405180910390fd5b806000819055505050611a3360008483856116b0565b505050565b60008373ffffffffffffffffffffffffffffffffffffffff1663150b7a02611a5e611511565b8786866040518563ffffffff1660e01b8152600401611a809493929190612a6c565b602060405180830381600087803b158015611a9a57600080fd5b505af1925050508015611acb57506040513d601f19601f82011682018060405250810190611ac89190612acd565b60015b611b45573d8060008114611afb576040519150601f19603f3d011682016040523d82523d6000602084013e611b00565b606091505b50600081511415611b3d576040517fd1a57ed600000000000000000000000000000000000000000000000000000000815260040160405180910390fd5b805181602001fd5b63150b7a0260e01b7bffffffffffffffffffffffffffffffffffffffffffffffffffffffff1916817bffffffffffffffffffffffffffffffffffffffffffffffffffffffff191614915050949350505050565b6060600c8054611ba7906125e6565b80601f0160208091040260200160405190810160405280929190818152602001828054611bd3906125e6565b8015611c205780601f10611bf557610100808354040283529160200191611c20565b820191906000526020600020905b815481529060010190602001808311611c0357829003601f168201915b5050505050905090565b60606080604051019050806040528082600183039250600a81066030018353600a810490505b8015611c7057600183039250600a81066030018353600a81049050611c50565b508181036020830392508083525050919050565b60009392505050565b600033905090565b60008082905060005b8451811015611ce057611ccb82868381518110611cbe57611cbd612afa565b5b6020026020010151611cfb565b91508080611cd890612b29565b915050611c9e565b508091505092915050565b60006001821460e11b9050919050565b6000818310611d1357611d0e8284611d26565b611d1e565b611d1d8383611d26565b5b905092915050565b600082600052816020526040600020905092915050565b828054611d49906125e6565b90600052602060002090601f016020900481019282611d6b5760008555611db2565b82601f10611d8457803560ff1916838001178555611db2565b82800160010185558215611db2579182015b82811115611db1578235825591602001919060010190611d96565b5b509050611dbf9190611dc3565b5090565b5b80821115611ddc576000816000905550600101611dc4565b5090565b6000604051905090565b600080fd5b600080fd5b60007fffffffff0000000000000000000000000000000000000000000000000000000082169050919050565b611e2981611df4565b8114611e3457600080fd5b50565b600081359050611e4681611e20565b92915050565b600060208284031215611e6257611e61611dea565b5b6000611e7084828501611e37565b91505092915050565b60008115159050919050565b611e8e81611e79565b82525050565b6000602082019050611ea96000830184611e85565b92915050565b600081519050919050565b600082825260208201905092915050565b60005b83811015611ee9578082015181840152602081019050611ece565b83811115611ef8576000848401525b50505050565b6000601f19601f8301169050919050565b6000611f1a82611eaf565b611f248185611eba565b9350611f34818560208601611ecb565b611f3d81611efe565b840191505092915050565b60006020820190508181036000830152611f628184611f0f565b905092915050565b6000819050919050565b611f7d81611f6a565b8114611f8857600080fd5b50565b600081359050611f9a81611f74565b92915050565b600060208284031215611fb657611fb5611dea565b5b6000611fc484828501611f8b565b91505092915050565b600073ffffffffffffffffffffffffffffffffffffffff82169050919050565b6000611ff882611fcd565b9050919050565b61200881611fed565b82525050565b60006020820190506120236000830184611fff565b92915050565b61203281611fed565b811461203d57600080fd5b50565b60008135905061204f81612029565b92915050565b6000806040838503121561206c5761206b611dea565b5b600061207a85828601612040565b925050602061208b85828601611f8b565b9150509250929050565b61209e81611f6a565b82525050565b60006020820190506120b96000830184612095565b92915050565b6000806000606084860312156120d8576120d7611dea565b5b60006120e686828701612040565b93505060206120f786828701612040565b925050604061210886828701611f8b565b9150509250925092565b6000819050919050565b61212581612112565b82525050565b6000602082019050612140600083018461211c565b92915050565b600080fd5b600080fd5b600080fd5b60008083601f84011261216b5761216a612146565b5b8235905067ffffffffffffffff8111156121885761218761214b565b5b6020830191508360018202830111156121a4576121a3612150565b5b9250929050565b600080602083850312156121c2576121c1611dea565b5b600083013567ffffffffffffffff8111156121e0576121df611def565b5b6121ec85828601612155565b92509250509250929050565b60006020828403121561220e5761220d611dea565b5b600061221c84828501612040565b91505092915050565b61222e81612112565b811461223957600080fd5b50565b60008135905061224b81612225565b92915050565b60006020828403121561226757612266611dea565b5b60006122758482850161223c565b91505092915050565b60008083601f84011261229457612293612146565b5b8235905067ffffffffffffffff8111156122b1576122b061214b565b5b6020830191508360208202830111156122cd576122cc612150565b5b9250929050565b600080602083850312156122eb576122ea611dea565b5b600083013567ffffffffffffffff81111561230957612308611def565b5b6123158582860161227e565b92509250509250929050565b61232a81611e79565b811461233557600080fd5b50565b60008135905061234781612321565b92915050565b6000806040838503121561236457612363611dea565b5b600061237285828601612040565b925050602061238385828601612338565b9150509250929050565b600060ff82169050919050565b6123a38161238d565b82525050565b60006020820190506123be600083018461239a565b92915050565b600080fd5b7f4e487b7100000000000000000000000000000000000000000000000000000000600052604160045260246000fd5b61240182611efe565b810181811067ffffffffffffffff821117156124205761241f6123c9565b5b80604052505050565b6000612433611de0565b905061243f82826123f8565b919050565b600067ffffffffffffffff82111561245f5761245e6123c9565b5b61246882611efe565b9050602081019050919050565b82818337600083830152505050565b600061249761249284612444565b612429565b9050828152602081018484840111156124b3576124b26123c4565b5b6124be848285612475565b509392505050565b600082601f8301126124db576124da612146565b5b81356124eb848260208601612484565b91505092915050565b6000806000806080858703121561250e5761250d611dea565b5b600061251c87828801612040565b945050602061252d87828801612040565b935050604061253e87828801611f8b565b925050606085013567ffffffffffffffff81111561255f5761255e611def565b5b61256b878288016124c6565b91505092959194509250565b6000806040838503121561258e5761258d611dea565b5b600061259c85828601612040565b92505060206125ad85828601612040565b9150509250929050565b7f4e487b7100000000000000000000000000000000000000000000000000000000600052602260045260246000fd5b600060028204905060018216806125fe57607f821691505b60208210811415612612576126116125b7565b5b50919050565b7f5468652063616c6c657220697320616e6f7468657220636f6e74726163740000600082015250565b600061264e601e83611eba565b915061265982612618565b602082019050919050565b6000602082019050818103600083015261267d81612641565b9050919050565b7f546869732061646472657373206973206e6f742077686974656c697374656400600082015250565b60006126ba601f83611eba565b91506126c582612684565b602082019050919050565b600060208201905081810360008301526126e9816126ad565b9050919050565b7f45786365646564206d6178206d696e74206c696d697400000000000000000000600082015250565b6000612726601683611eba565b9150612731826126f0565b602082019050919050565b6000602082019050818103600083015261275581612719565b9050919050565b7f4e6f7420656e6f756768204554482073656e7400000000000000000000000000600082015250565b6000612792601383611eba565b915061279d8261275c565b602082019050919050565b600060208201905081810360008301526127c181612785565b9050919050565b7f4e487b7100000000000000000000000000000000000000000000000000000000600052601160045260246000fd5b600061280282611f6a565b915061280d83611f6a565b9250827fffffffffffffffffffffffffffffffffffffffffffffffffffffffffffffffff03821115612842576128416127c8565b5b828201905092915050565b7f52656163686564206d617820737570706c790000000000000000000000000000600082015250565b6000612883601283611eba565b915061288e8261284d565b602082019050919050565b600060208201905081810360008301526128b281612876565b9050919050565b600081905092915050565b60006128cf82611eaf565b6128d981856128b9565b93506128e9818560208601611ecb565b80840191505092915050565b600061290182856128c4565b915061290d82846128c4565b91508190509392505050565b7f4f776e61626c653a206e6577206f776e657220697320746865207a65726f206160008201527f6464726573730000000000000000000000000000000000000000000000000000602082015250565b6000612975602683611eba565b915061298082612919565b604082019050919050565b600060208201905081810360008301526129a481612968565b9050919050565b7f4f776e61626c653a2063616c6c6572206973206e6f7420746865206f776e6572600082015250565b60006129e1602083611eba565b91506129ec826129ab565b602082019050919050565b60006020820190508181036000830152612a10816129d4565b9050919050565b600081519050919050565b600082825260208201905092915050565b6000612a3e82612a17565b612a488185612a22565b9350612a58818560208601611ecb565b612a6181611efe565b840191505092915050565b6000608082019050612a816000830187611fff565b612a8e6020830186611fff565b612a9b6040830185612095565b8181036060830152612aad8184612a33565b905095945050505050565b600081519050612ac781611e20565b92915050565b600060208284031215612ae357612ae2611dea565b5b6000612af184828501612ab8565b91505092915050565b7f4e487b7100000000000000000000000000000000000000000000000000000000600052603260045260246000fd5b6000612b3482611f6a565b91507fffffffffffffffffffffffffffffffffffffffffffffffffffffffffffffffff821415612b6757612b666127c8565b5b60018201905091905056fea2646970667358221220b155a027ffe66ea23c839ef3e3416cf034bc58ca47b97f9301b09451d16debe964736f6c63430008090033",
  "linkReferences": {},
  "deployedLinkReferences": {}
}